:10000000A8020020E10300004904000051040000A0
:1000100059040000590400005904000000000000C9
:100020000000000000000000000000005904000073
:1000300059040000000000005904000059040000A9
:10004000590400005904000059040000590400003C
:100050005904000019090000590400005904000067
:10006000590400005904000059040000590400001C
:10007000590400005904000059040000590400000C
:1000800059040000590400005904000059040000FC
:1000900059040000590400005904000059040000EC
:1000A00059040000590400005904000059040000DC
:1000B00059040000590400005904000059040000CC
:1000C00059040000590400005904000059040000BC
:1000D00059040000590400005904000059040000AC
:1000E0005904000000000000000000005904000056
:1000F000590400005904000059040000590400008C
:10010000590400005904000059040000590400007B
:100110000000000000000000590400005904000025
:10012000590400005904000059040000590400005B
:10013000590400005904000059040000590400004B
:1001400000000000000000000000000000000000AF
:10015000590400005904000059040000590400002B
:10016000000000000000000000000000000000008F
:10017000000000000000000000000000000000007F
:10018000000000000000000000000000000000006F
:10019000000000000000000000000000000000005F
:1001A000000000000000000000000000000000004F
:1001B00059040000590400005904000059040000CB
:1001C00059040000590400005904000059040000BB
:1001D00059040000590400005904000059040000AB
:1001E00059040000590400005904000000000000F8
:1001F00000000000590400005904000059040000E8
:100200005904000059040000000000000000000034
:10021000590400005904000059040000590400006A
:10022000590400005904000059040000590400005A
:10023000590400005904000059040000590400004A
:10024000590400005904000059040000590400003A
:10025000590400005904000059040000590400002A
:0C0260005904000059040000590400007B
:10026C0080B400AFBD465DF8047B704780B500AF2D
:10027C000220002101F01CFB0346002B25D001209D
:10028C00012101F0C3F8404801F0F4F801200221EB
:10029C0001F0BCF83D4B1B8801339AB23B4B1A80E2
:1002AC003A4B1B883A48194601F0E4F80120022128
:1002BC0000F0C6FD0220002100F0C2FD334B1B886C
:1002CC00002034491A4600F04BFD0420012101F0B6
:1002DC00EFFA0346002B25D00120012101F096F8FE
:1002EC002D4801F0C7F80120022101F08FF82B4BAB
:1002FC001B8801339AB2294B1A80284B1B8824483F
:10030C00194601F0B7F80120002100F099FD0220F8
:10031C00032100F095FD214B1B88002020491A4633
:10032C0000F01EFD0620012101F0C2FA0346002B4D
:10033C0021D00120012101F069F81A4801F09AF846
:10034C000120022101F062F8174B1B8801339AB28D
:10035C00154B1A80144B1B880D48194601F08AF86E
:10036C000320022100F06CFD0F4B1B8800200F496D
:10037C001A4600F0F5FC642000F0C2FB01F0F0F925
:10038C0000F032FE80BD00BF74190000A0000020F8
:10039C008819000094190000B4190000A200002074
:1003AC00C8190000E8190000A4000020FC19000086
:1003BC0080B400AFBD465DF8047B704780B500AFDC
:1003CC0000F0BAF800F0CAF8FFF74AFFFFF74EFF4B
:1003DC00FAE700BF80B582B000AF124B7B60124BC6
:1003EC003B6007E03B681A1D3A607A68111D796022
:1003FC0012681A603B680D4A9342F3D30D480E49BC
:10040C004FF000028842B8BF40F8042BFADB084AD0
:10041C00074B1B6843F470031360FFF7CFFF0837DB
:10042C00BD4680BD5C1A000000000020A00000202A
:10043C0088ED00E0A00000209003002080B400AF05
:10044C00FEE700BF80B400AFFEE700BF80B400AF92
:10045C00FEE700BF80B400AFBD465DF8047B70477B
:10046C0080B582B000AF234A224B1B6843F02003B7
:10047C00136000F011FB00F00FFB1E4B1B687B6040
:10048C001D4B1E4A1A601E4B1F221A601D4B002268
:10049C001A601D4B00221A601C4B0E221A601C4B5A
:1004AC0000221A601B4B11221A601B4B1F221A6070
:1004BC00104A104B1B6843F00203136000F0ECFA77
:1004CC0000F0EAFA154BFF221A60154B00221A6055
:1004DC00144B00221A60144BFF221A60134B00229B
:1004EC001A60134B00221A60124BFF221A60083755
:1004FC00BD4680BD08E10F40205502404B434F4C98
:10050C0024550240285502402C550240005402400C
:10051C0020540240105502401C5502402455004006
:10052C00285500402C5500400054004020540040F9
:10053C00105500401C55004080B500AFFFF790FFF0
:10054C0000F082F800F042F900F0CCF800F076F8F8
:10055C00FFF780FF00F0C0F880BD00BFB0B594B0CD
:10056C0014AF00F0F1FA0020284900F005FBFFF76A
:10057C001FFF01F0B3F8264BDA6800920ECB012076
:10058C0001F0CAF8234BDA6800920ECB022001F07E
:10059C00C3F8214D214B6C460FCB84E80F00204B48
:1005AC0004AC0FCB84E80F001E4B08AC0FCB84E8D7
:1005BC000F001D4B0CAC0FCB84E80F001B4B10AC89
:1005CC000FCB84E80F0095E80F0000F0F3FD01203D
:1005DC00012100F01BFF164800F04CFF154BDA68A8
:1005EC0000920ECB002000F0DBFC134BDA6800927B
:1005FC000ECB012000F0D4FC0120002100F020FCE7
:10060C000220002100F01CFCBD46B0BDE908000032
:10061C0060000020900000205000002040000020CE
:10062C0030000020200000201000002000000020DE
:10063C00241A0000700000208000002080B400AF5D
:10064C00BD465DF8047B704780B400AF1F4A1F4B5A
:10065C001B6843F0004313601C4A1C4B1B6843F49B
:10066C00006313601A4A1A4B1B6823F4F86303F5F2
:10067C00A8631360154A154B1B6823F070031360B5
:10068C00124A124B1B6823F4005313600F4A0F4B92
:10069C001B6843F0804313600C4A0C4B1B6823F01F
:1006AC00FE5303F18073136000BF0A4B1B6803F009
:1006BC004003002BF9D0054A044B1B6823F400635C
:1006CC001360BD465DF8047B704700BF70E00F40BF
:1006DC0060E00F4050E00F4080B400AFBD465DF8C5
:1006EC00047B704780B400AFBD465DF8047B704757
:1006FC0080B485B000AF03463960FB710023FB600A
:10070C001A4B1B78012B0ED0022B1FD0002B26D19D
:10071C00FB79532B06D1154B01221A70144B002276
:10072C001A601CE01BE0124B1B685A1C10490A6033
:10073C001A463B681344FA791A700D4B1B68042B4C
:10074C0003D10A4B02221A7009E008E0FB79452B11
:10075C0001D10123FB60054B00221A7000BFFB681E
:10076C0018461437BD465DF8047B7047A80200207C
:10077C00AC02002080B582B000AF0346FB71FB7960
:10078C0018460E49FFF7B4FF0346002B13D0012087
:10079C00012100F03BFE0A4800F06CFE0120022112
:1007AC0000F034FE0748054900F064FE00200649BD
:1007BC00024A00F0D5FA0837BD4680BDB0020020D1
:1007CC00381A00004C1A0000501A000080B500AF17
:1007DC002B4A2B4B1B6843F001031360294A294B0E
:1007EC001B6843F001031360274A274B1B6823F057
:1007FC0001031360254B2B221A60254B1A221A6019
:10080C00244B70221A60204A1F4B1B6843F00103D3
:10081C001360214A204B1B6843F0030313601F4AEB
:10082C001E4B1B6843F0030313601D4A1C4B1B68D3
:10083C0023F0FF03113313601A4A1A4B1B6823F081
:10084C0003031360184B6022DA62174A164B9B6B3A
:10085C0043F010039363144B40F201321A63134BB1
:10086C00602283F80523114A104B1B6843F02003C8
:10087C00136062B600200E4900F01CF880BD00BF6A
:10088C0004E10F4008E10F4030C0004024C000409C
:10089C0028C000402CC00040204400401C450040B3
:1008AC002C4500402845004000C0004000E100E01D
:1008BC008107000080B483B000AF03463960FB7140
:1008CC00FB79002B03D1044A3B68136000BF0C3743
:1008DC00BD465DF8047B70470803002080B483B0EC
:1008EC0000AF0346FB7100BF064B1B6803F02003EF
:1008FC00002BF9D1044AFB7913600C37BD465DF827
:10090C00047B704718C0004000C0004080B582B026
:10091C0000AF0F4B1B6C03F01003002B0ED00C4BD5
:10092C001B68FB710B4B1B68FA7910469847084BF8
:10093C0010225A64064B5B6C3B6006E0044A044B85
:10094C001B6C5364024B5B6C3B600837BD4680BD2F
:10095C0000C000400803002080B483B000AF786072
:10096C007B681B687A68126812687968496808465F
:10097C00012181400A431A600C37BD465DF8047BA7
:10098C00704700BF80B483B000AF78607B681B6891
:10099C007A681268126879684968084601218140B2
:1009AC00C9430A401A600C37BD465DF8047B70479A
:1009BC0080B483B000AF78607B681B681B68DAB2C8
:1009CC007B685B68194601238B40DBB21340DBB2BA
:1009DC0018460C37BD465DF8047B704780B483B075
:1009EC0000AF786039603B68002B0CD07B681B68CB
:1009FC007A68126812687968496808460121814052
:100A0C000A431A600CE07B681B687A6812681268EB
:100A1C0079684968084601218140C9430A401A6037
:100A2C000C37BD465DF8047B704700BF80B483B0C3
:100A3C0000AF786039603B681A687B681A603B6865
:100A4C00DA687B685A600C37BD465DF8047B7047EA
:100A5C0080B483B000AF78607B681B681B687A68D1
:100A6C005268114601228A401340002B01D0012309
:100A7C0000E0002318460C37BD465DF8047B704738
:100A8C0080B483B000AF78600B46FB700C37BD466A
:100A9C005DF8047B704700BF80B483B000AF40F2B8
:100AAC003E637B6002E07B68013B7B607B68002BD4
:100ABC00F9D10C37BD465DF8047B704780B485B026
:100ACC0000AF0346FB800123BB810023FB810EE0BA
:100ADC000123BB8104E0BB899BB2013B9BB2BB8170
:100AEC00BB899BB2002BF6D1FB890133FB81FA89C0
:100AFC00FB889A42ECD31437BD465DF8047B7047F3
:100B0C0080B485B000AF0346FB8040F23E63BB81EE
:100B1C000023FB810FE040F23E63BB8104E0BB8904
:100B2C009BB2013B9BB2BB81BB899BB2002BF6D124
:100B3C00FB890133FB81FA89FB889A42EBD314378A
:100B4C00BD465DF8047B704780B483B000AF0023D2
:100B5C00FB7107E0FB79074A002142F82310FB796F
:100B6C000133FB71FB79002BF4D00C37BD465DF8DB
:100B7C00047B70470C03002080B483B000AF0346A5
:100B8C003960FB71FB79002B04D1FB7904493A687D
:100B9C0041F823200C37BD465DF8047B704700BF3D
:100BAC000C03002080B582B000AF03460A46FB71EF
:100BBC001346BB71034B1B68BA791046984708372C
:100BCC00BD4680BD0C03002080B584B000AF034649
:100BDC003960FB7108E0FA79FB7B10461946FFF788
:100BEC00E1FF3B6801333B603B681B78FB73FB7B8D
:100BFC00002BF0D11037BD4680BD00BF80B586B04C
:100C0C0000AF03460A46FB711346BB8000237B6191
:100C1C00BA881A4BA3FB0213D9080B469B000B4452
:100C2C005B00D31A9BB2D9B207F108027B6913445B
:100C3C000A461A70BB88114AA2FB0323DB08BB804F
:100C4C007B6901337B61BB88002BE1D110E07B69B0
:100C5C00013B07F11802134413F8103C3033DBB29C
:100C6C00FA7910461946FFF79DFF7B69013B7B61C2
:100C7C007B69002BEBD11837BD4680BDCDCCCCCCDD
:100C8C0080B586B000AF03460A46FB711346BB80A5
:100C9C0000237B610023FB74B7F90430002B05DAC9
:100CAC00BB885B429BB2BB800123FB74B7F9042069
:100CBC002A4B83FB02139910D317C91A0B469B00BE
:100CCC000B445B00D31A9BB2D9B207F108027B69C3
:100CDC0013440A461A70B7F90430204A82FB0312F7
:100CEC009210DB17D31ABB807B6901337B61B7F998
:100CFC000430002BDAD1FB7C002B08D07B6901334C
:100D0C007B6107F108027B6913442D221A701FE0E6
:100D1C0007F108027B6913441B78DBB22D2B05D13C
:100D2C00FB7918462D21FFF73DFF0EE07B69013B57
:100D3C0007F11802134413F8103CDBB23033DBB26A
:100D4C00FA7910461946FFF72DFF7B69013B7B6151
:100D5C007B69002BDCD11837BD4680BD67666666A3
:100D6C000EB480B587B000AF0346FB7107F12803C2
:100D7C00BB60FB79002B5CD157E07B6A1B78252B81
:100D8C0049D17B6A01337B627B6A1B78642B28D048
:100D9C00642B04DC252B07D0632B0BD042E0732B88
:100DAC0014D0752B2AD03DE0FB7918462521FFF78E
:100DBC00F9FE2FE0BB681A1DBA601B68FB75FA7947
:100DCC00FB7D10461946FFF7EDFE23E0BB681A1DAC
:100DDC00BA601B683B61FB7918463969FFF7F4FE72
:100DEC0018E0BB681A1DBA601B68FB81FA79B7F969
:100DFC000E3010461946FFF743FF0BE0BB681A1D77
:100E0C00BA601B68BB81FA79BB8910461946FFF79B
:100E1C00F5FE00BF06E07B6A1B78FA79104619468E
:100E2C00FFF7C0FE7B6A01337B627B6A1B78002B69
:100E3C00A3D11C37BD46BDE8804003B0704700BF4E
:100E4C0080B584B000AF03460A46FB711346BB71F4
:100E5C00BB79032B00F29A8001A252F823F000BF59
:100E6C007D0E0000CF0E0000190F0000590F00007E
:100E7C00484B1A78FB795340FB73464B1A78FB7B33
:100E8C001340DAB2434B1A70434B1A78FB79534038
:100E9C00FB73414B1A78FB7B1340DAB23E4B1A7052
:100EAC003E4B1A78FB795340FB733C4B1A78FB7B17
:100EBC001340DAB2394B1A70FB79184600F000F97E
:100ECC0064E0344B1A78FB791343DAB2314B1A7065
:100EDC00314B1A78FB795340FB732F4B1A78FB7B01
:100EEC001340DAB22C4B1A702C4B1A78FB79534006
:100EFC00FB732A4B1A78FB7B1340DAB2274B1A7020
:100F0C00244B1B78184600F0BDF83FE0214B1A78B3
:100F1C00FB795340FB731F4B1A78FB7B1340DAB2FF
:100F2C001C4B1A701C4B1A78FB791343DAB21A4B10
:100F3C001A701A4B1A78FB795340FB73174B1A78BB
:100F4C00FB7B1340DAB2154B1A701FE0114B1A7869
:100F5C00FB795340FB730F4B1A78FB7B1340DAB2CF
:100F6C000C4B1A700C4B1A78FB795340FB730A4BE1
:100F7C001A78FB7B1340DAB2074B1A70074B1A78BE
:100F8C00FB791343DAB2054B1A7000BF1037BD461C
:100F9C0080BD00BF100300201403002018030020A4
:100FAC0084B090B583B000AF044607F11C0080E814
:100FBC000E002346FB71FB79DB000A4A1A4407F149
:100FCC001C0310461946FFF731FD07F11C031846A8
:100FDC000021FFF755FD0C37BD46BDE8904004B02D
:100FEC00704700BFB802002080B500AF124B1B78D1
:100FFC000133DAB2104B1A70104B1B780133DAB292
:10100C000E4B1A700C4B1B780A2B07D10C4B1B7810
:10101C00184600F019F8084B00221A70074B1B7881
:10102C00032B07D1074B1B78184600F00DF8034B28
:10103C0000221A7080BD00BFF8020020F9020020C7
:10104C00140300201803002080B584B000AF0346C1
:10105C00FB71FB79002B0FD0094B1B78FB73FB79D1
:10106C00184600F00FF8064B1B78FA7B9A4203D116
:10107C00FB79184600F024F81037BD4680BD00BF40
:10108C001C03002080B584B000AF0346FB710B4BF2
:10109C001A78FB791343DAB2084B1A7000F034F863
:1010AC000346FB73054B1A78FB7B1343FB73FB7BEB
:1010BC00184600F055F81037BD4680BD1C030020C3
:1010CC0080B584B000AF0346FB710E4B1A78FB79E8
:1010DC005340FB730B4B1A78FB7B1340DAB2094B72
:1010EC001A70084B1B78BB73FB79DB43DAB2BB7B02
:1010FC001340DBB2BB73BB7B184600F031F81037E2
:10110C00BD4680BD1C03002080B582B000AF00231B
:10111C003B700023FB7118E0FB79DB000F4A134492
:10112C001846FFF745FC0346002B0BD03B78D9B291
:10113C00FB79012202FA03F3DBB20A461343DBB25A
:10114C00DBB23B70FB790133FB71FB79072BE3D9E5
:10115C003B7818460837BD4680BD00BFB80200205A
:10116C0080B584B000AF0346FB710023FB7319E01C
:10117C00FA79FB7B42FA03F303F00103002B07D04F
:10118C00FB7BDB000A4A13441846FFF7E5FB06E03D
:10119C00FB7BDB00064A13441846FFF7F3FBFB7B93
:1011AC000133FB73FB7B072BE2D91037BD4680BDA7
:1011BC00B802002090B585B000AF3C4684E80F0023
:1011CC003B4624481946FFF731FC3B4618460021A4
:1011DC00FFF756FC204807F12001FFF727FC07F129
:1011EC0020000021FFF74CFC07F130031B48194687
:1011FC00FFF71CFC07F1300318460021FFF740FCF9
:10120C0007F1400316481946FFF710FC07F140039D
:10121C0018460021FFF734FC07F15003114819461A
:10122C00FFF704FC07F1500318460021FFF728FCD8
:10123C0007F160030C481946FFF7F8FB07F1600350
:10124C0018460021FFF71CFC00F010F81437BD46BF
:10125C0090BD00BF48030020400300202003002065
:10126C0028030020300300203803002080B582B012
:10127C0000AF1C48FFF786FB1B48FFF783FB0F20D2
:10128C00FFF73EFC0023FB710AE0032000F030F86E
:10129C000520FFF735FCFB79DBB20133DBB2FB71C8
:1012AC0097F90730022BF0DD022000F021F8002323
:1012BC00FB7110E097F907300C4AD35C5BB200204D
:1012CC00194600F055F80520FFF71AFCFB79DBB244
:1012DC000133DBB2FB71FB79032BEBD90837BD462D
:1012EC0080BD00BF4803002040030020581A0000B6
:1012FC0080B584B000AF0346FB71FB793B733B7B3D
:10130C00C3F30003DBB215481946FFF767FB3B7BC1
:10131C00C3F34003DBB212481946FFF75FFB3B7B7C
:10132C00C3F38003DBB20F481946FFF757FB3B7B37
:10133C00C3F3C003DBB20C481946FFF74FFB032085
:10134C00FFF7DEFB0948FFF707FB0220FFF7B6FBB0
:10135C000648FFF717FB1037BD4680BD2003002061
:10136C002803002030030020380300204003002015
:10137C0080B582B000AF03460A46FB711346BB71C1
:10138C001448FFF7FFFA3C20FFF798FB97F907305A
:10139C00002B03D00F48FFF7DFFA02E00D48FFF7F0
:1013AC00F1FA0120FFF7ACFB0B48FFF7EBFA97F9CA
:1013BC0006301B11DBB25BB21846FFF799FFBB7905
:1013CC0003F00F03DBB25BB21846FFF791FF08374F
:1013DC00BD4680BD480300204003002080B584B08A
:1013EC0000AF786008E0FB7B5BB201201946FFF789
:1013FC00BFFF7B6801337B607B681B78FB73FB7BD7
:10140C00002BF0D11037BD4680BD00BF80B584B035
:10141C0000AF03460A46FB711346BB7197F90630C1
:10142C00013B032B16D801A252F823F049140000FB
:10143C004F140000551400005B1400008023FB7354
:10144C0008E0C023FB7305E09423FB7302E0D42374
:10145C00FB7300BFFA79FB7B1344DBB2013BDBB2BD
:10146C00FB7397F90F3000201946FFF781FF1037F7
:10147C00BD4680BD0FB480B584B000AF07F11C032E
:10148C003B606FE0BB691B785BB2252B43D1BB691A
:10149C000133BB61BB691B785BB2642B25D0642B19
:1014AC0004DC252B07D0632B0AD058E0732B13D008
:1014BC00752B25D053E001202521FFF759FF29E09A
:1014CC003B681A1D3A601B68FB7397F90F300120BB
:1014DC001946FFF74DFF1DE03B681A1D3A601B686B
:1014EC00BB60B868FFF77AFF14E03B681A1D3A60DE
:1014FC001B68FB80B7F90630184600F07FF809E04E
:10150C003B681A1D3A601B68BB80BB88184600F00C
:10151C0033F800BF23E0BB691B785BB20A2B0CD0FD
:10152C000C2B02D0082B0DD011E000200121FFF76D
:10153C001FFF0220FFF7E4FA11E001200221FFF760
:10154C0065FF0CE000201021FFF712FF07E0BB69DC
:10155C001B785BB201201946FFF70AFF00BFBB697D
:10156C000133BB61BB691B78002B8BD11037BD4697
:10157C00BDE8804004B0704780B586B000AF03462C
:10158C00FB8000237B61FA881B4BA3FB0213D90859
:10159C000B469B000B445B00D31A9BB2D9B207F1EC
:1015AC0008027B6913440A461A70FB88124AA2FB94
:1015BC000323DB08FB807B6901337B61FB88002BF9
:1015CC00E1D112E07B69013B07F11802134413F8D7
:1015DC00103CDBB23033DBB2DBB25BB2012019461C
:1015EC00FFF7C6FE7B69013B7B617B69002BE9D170
:1015FC001837BD4680BD00BFCDCCCCCC80B586B0F5
:10160C0000AF0346FB8000237B610023FB74B7F91A
:10161C000630002B05DAFB885B429BB2FB80012372
:10162C00FB74B7F906202C4B83FB02139910D317CC
:10163C00C91A0B469B000B445B00D31A9BB2D9B260
:10164C0007F108027B6913440A461A70B7F9063091
:10165C00214A82FB03129210DB17D31AFB807B69A1
:10166C0001337B61B7F90630002BDAD1FB7C002B00
:10167C0008D07B6901337B6107F108027B69134455
:10168C002D221A7021E007F108027B6913441B78A4
:10169C00DBB25BB22D2B04D101202D21FFF768FEAC
:1016AC0010E07B69013B07F11802134413F8103C5E
:1016BC00DBB2DBB23033DBB2DBB25BB201201946FA
:1016CC00FFF756FE7B69013B7B617B69002BDAD10E
:1016DC001837BD4680BD00BF6766666680B483B0B0
:1016EC0000AF0023FB710DE0FB790A4A002142F8A0
:1016FC003310FB79074ADB00134400225A60FB7954
:10170C000133FB71FB79032BEED90C37BD465DF829
:10171C00047B70475003002084B090B583B000AFB9
:10172C00044607F11C0080E80E002346FB71FB7990
:10173C00DB000A4A1A4407F11C0310461946FFF74E
:10174C0075F907F11C0318460121FFF799F90C37BD
:10175C00BD46BDE8904004B0704700BF5003002068
:10176C0080B582B000AF4F4B00221A700023FB7182
:10177C0021E0FB794C4A52F83330002B18D0FB791E
:10178C00DB00494A13441846FFF762F90346012B64
:10179C000ED0444B1B78DBB2D9B2FB79012202FA92
:1017AC0003F3DBB20A461343DBB2DAB23D4B1A70D9
:1017BC00FB790133FB71FB79072BDAD9394B1B7899
:1017CC00DBB2002B3DD0374B1B685B0A03F00103E7
:1017DC00DBB2002B63D0334B1B681B0A03F00103F5
:1017EC00DBB2002B5BD12F4B1B681B0B03F00F03E1
:1017FC00DBB2002B0FD02B4B1B681B0B03F00F0322
:10180C00DBB20F3303F00F03D9B2264A138861F30E
:10181C000F33138043E0234A13886FF3492313805B
:10182C00204A138843F4807313801E4B1B889AB292
:10183C001E4B1A801B4A1388062161F30F33138049
:10184C002DE0184B1B681B0B03F00F03DBB2002BB6
:10185C0017D0144B1B685B0A03F00103DBB2002B9F
:10186C000FD1104B1B681B0B03F00F03DBB20F33B4
:10187C0003F00F03D9B20B4A138861F30F331380B3
:10188C000DE0084A138843F400731380074B0022C1
:10189C001A80044A1388062161F30F33138008372A
:1018AC00BD4680BD0003002050030020FC02002038
:1018BC0080B483B000AF03460A46FB711346BB717C
:1018CC00BB79002B1FD1264B1B78DBB2FA799A42DD
:1018DC0017D1234B1B78DAB2FB791340DBB21946D4
:1018EC001F4B1B78DBB2DAB2CBB25340DBB2DAB2AD
:1018FC001B4B1A701A4A13886FF3082313800123A9
:10190C0028E0002326E0174B1B78DBB2FA799A42C9
:10191C001FD1144B1B681B0A03F00103DBB2002B15
:10192C0017D0104B1B78DAB2FB791340DBB2194697
:10193C000C4B1B78DBB2DAB2CBB25340DBB2DAB26F
:10194C00084B1A70064A13886FF30823138001237F
:10195C0000E0002318460C37BD465DF8047B704749
:08196C0000030020FC02002032
:10197400425554544F4E20555020202020202020E2
:1019840000000000257520202020202000000000F9
:101994000D0A427574746F6E205550207072657311
:1019A4007365642025752074696D657300000000FB
:1019B400425554544F4E20444F574E20202020204F
:1019C400000000000D0A427574746F6E20444F5776
:1019D4004E20707265737365642025752074696D7B
:1019E400657300000C425554544F4E20444F574EDB
:1019F400202B2055500000000D0A427574746F6E40
:101A04007320444F574E202B20555020707265731D
:101A14007365642025752074696D6573000000008A
:101A24004D6F64756C6F204A41474120202020206F
:101A3400000000000C55415254204D6573736167DA
:101A4400653A202000000000257300000D0A25736C
:081A540000000000280C01064F
:101A5C00FC53004000540040000000000000000057
:101A6C00FC53004000540040000000000100000046
:101A7C00FC53004000540040000000000200000035
:101A8C00FC53004000540040000000000300000024
:101A9C00FC53004000540040000000000400000013
:101AAC00FC53004000540040000000000500000002
:101ABC00FC530240005402400000000000000000F3
:101ACC00FC530240005402400000000001000000E2
:101ADC00FC530240005402400000000002000000D1
:101AEC00FC530240005402400000000004000000BF
:040000030000026C8B
:00000001FF
