:10000000A002002039030000A1030000A9030000A2
:10001000B1030000B1030000B103000000000000C4
:10002000000000000000000000000000B10300001C
:10003000B103000000000000B1030000B1030000A4
:10004000B1030000B1030000B1030000B1030000E0
:10005000B1030000B1030000B1030000B1030000D0
:10006000B1030000B1030000B1030000B1030000C0
:10007000B1030000B1030000B1030000B1030000B0
:10008000B1030000B1030000B1030000B1030000A0
:10009000B1030000B1030000B1030000B103000090
:1000A000B1030000B1030000B1030000B103000080
:1000B000B1030000B1030000B1030000B103000070
:1000C000B1030000B1030000B1030000B103000060
:1000D000B1030000B1030000B1030000B103000050
:1000E000B10300000000000000000000B1030000A8
:1000F000B1030000B1030000B1030000B103000030
:10010000B1030000B1030000B1030000B10300001F
:100110000000000000000000B1030000B103000077
:10012000B1030000B1030000B1030000B1030000FF
:10013000B1030000B1030000B1030000B1030000EF
:1001400000000000000000000000000000000000AF
:10015000B1030000B1030000B1030000B1030000CF
:10016000000000000000000000000000000000008F
:10017000000000000000000000000000000000007F
:10018000000000000000000000000000000000006F
:10019000000000000000000000000000000000005F
:1001A000000000000000000000000000000000004F
:1001B000B1030000B1030000B1030000B10300006F
:1001C000B1030000B1030000B1030000B10300005F
:1001D000B1030000B1030000B1030000B10300004F
:1001E000B1030000B1030000B103000000000000F3
:1001F00000000000B1030000B1030000B1030000E3
:10020000B1030000B1030000000000000000000086
:10021000B1030000B1030000B1030000B10300000E
:10022000B1030000B1030000B1030000B1030000FE
:10023000B1030000B1030000B1030000B1030000EE
:10024000B1030000B1030000B1030000B1030000DE
:10025000B1030000B1030000B1030000B1030000CE
:0C026000B1030000B1030000B103000076
:10026C0080B400AFBD465DF8047B704780B500AF2D
:10027C000220012100F0C4FF0346002B0ED0012008
:10028C00012100F077FD1D4800F0A8FD01200021A0
:10029C0000F0CEFA0220032100F0CAFA042001215A
:1002AC0000F0AEFF0346002B0ED00120012100F020
:1002BC0061FD134800F092FD0120022100F0B8FA14
:1002CC000220002100F0B4FA0620012100F098FF72
:1002DC000346002B0AD00120012100F04BFD0948F8
:1002EC0000F07CFD0320022100F0A2FA642000F053
:1002FC007BFA00F0DDFE00F05BFB80BD5C130000C0
:10030C00701300008413000080B400AFBD465DF88C
:10031C00047B704780B500AF00F0BAF800F0CAF863
:10032C00FFF79EFFFFF7A2FFFAE700BF80B582B090
:10033C0000AF124B7B60124B3B6007E03B681A1D11
:10034C003A607A68111D796012681A603B680D4A30
:10035C009342F3D30D480E494FF000028842B8BFC8
:10036C0040F8042BFADB084A074B1B6843F4700374
:10037C001360FFF7CFFF0837BD4680BDB0130000F8
:10038C0000000020A000002088ED00E0A00000206C
:10039C00BC03002080B400AFFEE700BF80B400AF08
:1003AC00FEE700BF80B400AFFEE700BF80B400AF33
:1003BC00BD465DF8047B704780B582B000AF234A20
:1003CC00224B1B6843F02003136000F0D9F900F0B6
:1003DC00D7F91E4B1B687B601D4B1E4A1A601E4BC7
:1003EC001F221A601D4B00221A601D4B00221A603E
:1003FC001C4B0E221A601C4B00221A601B4B112244
:10040C001A601B4B1F221A60104A104B1B6843F0DA
:10041C000203136000F0B4F900F0B2F9154BFF229F
:10042C001A60154B00221A60144B00221A60144BF0
:10043C00FF221A60134B00221A60134B00221A6021
:10044C00124BFF221A600837BD4680BD08E10F40F1
:10045C00205502404B434F4C245502402855024036
:10046C002C550240005402402054024010550240CA
:10047C001C55024024550040285500402C55004086
:10048C000054004020540040105500401C550040C2
:10049C0080B500AFFFF790FF00F078F800F0CAF8D5
:1004AC0000F0C2F800F06CF8FFF780FF00F0B6F82F
:1004BC0080BD00BF80B500AFFFF726FF00F0C2FD86
:1004CC0001201C4900F0DCFD02201B4900F0D8FD86
:1004DC001A481B4900F052FB1A481B4900F04EFB0E
:1004EC001A481B4900F04AFB1A481B4900F046FB0E
:1004FC001A481B4900F042FB1A481B4900F03EFB0E
:10050C0000F04CFB0120012100F034FC174800F0F6
:10051C0065FC1748174900F03BFA1748174900F0DB
:10052C0037FA0120002100F083F90220002100F0AD
:10053C007FF980BD60000020900000207403002033
:10054C00500000206C030020400000204C030020D1
:10055C003000002054030020200000205C03002009
:10056C0010000020640300200000002098130000FD
:10057C00A002002070000020A802002080000020B3
:10058C0080B400AFBD465DF8047B704780B400AF0B
:10059C001F4A1F4B1B6843F0004313601C4A1C4B43
:1005AC001B6843F4006313601A4A1A4B1B6823F44C
:1005BC00F86303F5A8631360154A154B1B6823F009
:1005CC0070031360124A124B1B6823F40053136020
:1005DC000F4A0F4B1B6843F0804313600C4A0C4BC3
:1005EC001B6823F0FE5303F18073136000BF0A4BAA
:1005FC001B6803F04003002BF9D0054A044B1B6821
:10060C0023F400631360BD465DF8047B704700BFA4
:10061C0070E00F4060E00F4050E00F4080B400AF3E
:10062C00BD465DF8047B704780B400AFBD465DF8F5
:10063C00047B704780B400AFBD465DF8047B704707
:10064C0080B483B000AF78607B681B687A681268EE
:10065C001268796849680846012181400A431A608A
:10066C000C37BD465DF8047B704700BF80B483B087
:10067C0000AF78607B681B687A68126812687968CA
:10068C004968084601218140C9430A401A600C3769
:10069C00BD465DF8047B704780B483B000AF7860D2
:1006AC007B681B681B68DAB27B685B6819460123A0
:1006BC008B40DBB21340DBB218460C37BD465DF8FD
:1006CC00047B704780B483B000AF786039603B68BE
:1006DC00002B0CD07B681B687A68126812687968EA
:1006EC0049680846012181400A431A600CE07B6886
:1006FC001B687A6812681268796849680846012193
:10070C008140C9430A401A600C37BD465DF8047B32
:10071C00704700BF80B483B000AF786039603B682D
:10072C001A687B681A603B68DA687B685A600C3719
:10073C00BD465DF8047B704780B483B000AF786031
:10074C007B681B681B687A685268114601228A40D4
:10075C001340002B01D0012300E0002318460C3776
:10076C00BD465DF8047B704780B483B000AF786001
:10077C000B46FB700C37BD465DF8047B704700BF21
:10078C0080B483B000AF40F23E637B6002E07B68D4
:10079C00013B7B607B68002BF9D10C37BD465DF8C3
:1007AC00047B704780B485B000AF0346FB80012307
:1007BC00BB810023FB810EE00123BB8104E0BB89DC
:1007CC009BB2013B9BB2BB81BB899BB2002BF6D188
:1007DC00FB890133FB81FA89FB889A42ECD31437ED
:1007EC00BD465DF8047B704780B485B000AF03460E
:1007FC00FB8040F23E63BB810023FB810FE040F2A3
:10080C003E63BB8104E0BB899BB2013B9BB2BB81C5
:10081C00BB899BB2002BF6D1FB890133FB81FA8992
:10082C00FB889A42EBD31437BD465DF8047B7047C6
:10083C0080B584B000AF03460A46FB711346BB710A
:10084C00BB79032B00F29A8001A252F823F000BF6F
:10085C006D080000BF0800000909000049090000EC
:10086C00484B1A78FB795340FB73464B1A78FB7B49
:10087C001340DAB2434B1A70434B1A78FB7953404E
:10088C00FB73414B1A78FB7B1340DAB23E4B1A7068
:10089C003E4B1A78FB795340FB733C4B1A78FB7B2D
:1008AC001340DAB2394B1A70FB79184600F0ECF8A9
:1008BC0064E0344B1A78FB791343DAB2314B1A707B
:1008CC00314B1A78FB795340FB732F4B1A78FB7B17
:1008DC001340DAB22C4B1A702C4B1A78FB7953401C
:1008EC00FB732A4B1A78FB7B1340DAB2274B1A7036
:1008FC00244B1B78184600F0A9F83FE0214B1A78DE
:10090C00FB795340FB731F4B1A78FB7B1340DAB215
:10091C001C4B1A701C4B1A78FB791343DAB21A4B26
:10092C001A701A4B1A78FB795340FB73174B1A78D1
:10093C00FB7B1340DAB2154B1A701FE0114B1A787F
:10094C00FB795340FB730F4B1A78FB7B1340DAB2E5
:10095C000C4B1A700C4B1A78FB795340FB730A4BF7
:10096C001A78FB7B1340DAB2074B1A70074B1A78D4
:10097C00FB791343DAB2054B1A7000BF1037BD4632
:10098C0080BD00BFEC020020F0020020F402002029
:10099C0080B582B000AF7860396078683968FFF74D
:1009AC00B9FE38680021FFF7DFFE0837BD4680BD71
:1009BC0080B500AF124B1B780133DAB2104B1A70B2
:1009CC00104B1B780133DAB20E4B1A700C4B1B78A0
:1009DC000A2B07D10C4B1B78184600F019F8084B62
:1009EC0000221A70074B1B78032B07D1074B1B787F
:1009FC00184600F00DF8034B00221A7080BD00BFA2
:100A0C00E0020020E1020020F0020020F4020020AD
:100A1C0080B584B000AF0346FB71FB79002B0FD07F
:100A2C00094B1B78FB73FB79184600F00FF8064B4B
:100A3C001B78FA7B9A4203D1FB79184600F024F814
:100A4C001037BD4680BD00BFF802002080B584B0D1
:100A5C0000AF0346FB710B4B1A78FB791343DAB2E8
:100A6C00084B1A7000F034F80346FB73054B1A78E8
:100A7C00FB7B1343FB73FB7B184600F055F81037D8
:100A8C00BD4680BDF802002080B584B000AF03469F
:100A9C00FB710E4B1A78FB795340FB730B4B1A7896
:100AAC00FB7B1340DAB2094B1A70084B1B78BB73F3
:100ABC00FB79DB43DAB2BB7B1340DBB2BB73BB7B92
:100ACC00184600F031F81037BD4680BDF802002002
:100ADC0080B582B000AF00233B700023FB7118E09F
:100AEC00FB79DB000F4A13441846FFF7D5FD03468C
:100AFC00002B0BD03B78D9B2FB79012202FA03F31D
:100B0C00DBB20A461343DBB2DBB23B70FB79013339
:100B1C00FB71FB79072BE3D93B7818460837BD46A8
:100B2C0080BD00BFA002002080B584B000AF03469A
:100B3C00FB710023FB7319E0FA79FB7B42FA03F398
:100B4C0003F00103002B07D0FB7BDB000A4A1344A4
:100B5C001846FFF775FD06E0FB7BDB00064A1344E5
:100B6C001846FFF783FDFB7B0133FB73FB7B072BE5
:100B7C00E2D91037BD4680BDA002002080B582B0FE
:100B8C0000AF7860396078683968FFF7C3FD386862
:100B9C000021FFF7E9FD0837BD4680BD80B582B066
:100BAC0000AF2648FFF762FD2548FFF75FFD0F20D9
:100BBC00FFF71AFE0023FB710AE0032000F04CF84B
:100BCC000520FFF711FEFB79DBB20133DBB2FB71C1
:100BDC0097F90730022BF0DD022000F03DF80023DE
:100BEC00FB7110E097F90730164AD35C5BB200201A
:100BFC00194600F071F80520FFF7F6FDFB79DBB222
:100C0C000133DBB2FB71FB79032BEBD90E482021AE
:100C1C00142200F04FFB0D482021142200F04AFB57
:100C2C000B482021142200F045FB0A4820211422F5
:100C3C0000F040FB0837BD4680BD00BF74030020A8
:100C4C006C030020AC130000FC02002010030020F9
:100C5C00240300203803002080B584B000AF034685
:100C6C00FB71FB793B733B7BC3F30003DBB2154891
:100C7C001946FFF727FD3B7BC3F34003DBB2124859
:100C8C001946FFF71FFD3B7BC3F38003DBB20F4814
:100C9C001946FFF717FD3B7BC3F3C003DBB20C48CF
:100CAC001946FFF70FFD0A20FFF79EFD0948FFF7D5
:100CBC00C7FC0220FFF776FD0648FFF7D7FC10377C
:100CCC00BD4680BD4C030020540300205C03002073
:100CDC00640300206C03002080B582B000AF034693
:100CEC000A46FB711346BB711448FFF7BFFC3C204E
:100CFC00FFF758FD97F90730002B03D00F48FFF78B
:100D0C009FFC02E00D48FFF7B1FC0120FFF76CFDE2
:100D1C000B48FFF7ABFC97F906301B11DBB25BB24B
:100D2C001846FFF799FFBB7903F00F03DBB25BB2F8
:100D3C001846FFF791FF0837BD4680BD74030020AD
:100D4C006C03002080B584B000AF786008E0FB7BBA
:100D5C005BB201201946FFF7BFFF7B6801337B6054
:100D6C007B681B78FB73FB7B002BF0D11037BD46E7
:100D7C0080BD00BF80B584B000AF03460A46FB714E
:100D8C001346BB7197F90630013B032B16D801A211
:100D9C0052F823F0B10D0000B70D0000BD0D00009E
:100DAC00C30D00008023FB7308E0C023FB7305E038
:100DBC009423FB7302E0D423FB7300BFFA79FB7B13
:100DCC001344DBB2013BDBB2FB7397F90F3000200D
:100DDC001946FFF781FF1037BD4680BD0FB480B5B3
:100DEC0084B000AF07F11C033B606FE0BB691B785C
:100DFC005BB2252B43D1BB690133BB61BB691B784B
:100E0C005BB2642B25D0642B04DC252B07D0632B21
:100E1C000AD058E0732B13D0752B25D053E001204A
:100E2C002521FFF759FF29E03B681A1D3A601B6822
:100E3C00FB7397F90F3001201946FFF74DFF1DE0AA
:100E4C003B681A1D3A601B68BB60B868FFF77AFFF5
:100E5C0014E03B681A1D3A601B68FB80B7F906303A
:100E6C00184600F07FF809E03B681A1D3A601B68D1
:100E7C00BB80BB88184600F033F800BF23E0BB6989
:100E8C001B785BB20A2B0CD00C2B02D0082B0DD08C
:100E9C0011E000200121FFF71FFF0220FFF7A4FC47
:100EAC0011E001200221FFF765FF0CE0002010216A
:100EBC00FFF712FF07E0BB691B785BB201201946F4
:100ECC00FFF70AFF00BFBB690133BB61BB691B782D
:100EDC00002B8BD11037BD46BDE8804004B0704765
:100EEC0080B586B000AF0346FB8000237B61FA8897
:100EFC001B4BA3FB0213D9080B469B000B445B0056
:100F0C00D31A9BB2D9B207F108027B6913440A4683
:100F1C001A70FB88124AA2FB0323DB08FB807B6957
:100F2C0001337B61FB88002BE1D112E07B69013B33
:100F3C0007F11802134413F8103CDBB23033DBB268
:100F4C00DBB25BB201201946FFF7C6FE7B69013BA1
:100F5C007B617B69002BE9D11837BD4680BD00BF92
:100F6C00CDCCCCCC80B586B000AF0346FB80002343
:100F7C007B610023FB74B7F90630002B05DAFB8884
:100F8C005B429BB2FB800123FB74B7F906202C4B10
:100F9C0083FB02139910D317C91A0B469B000B4401
:100FAC005B00D31A9BB2D9B207F108027B691344D8
:100FBC000A461A70B7F90630214A82FB03129210C6
:100FCC00DB17D31AFB807B6901337B61B7F90630E1
:100FDC00002BDAD1FB7C002B08D07B6901337B61C1
:100FEC0007F108027B6913442D221A7021E007F1E6
:100FFC0008027B6913441B78DBB25BB22D2B04D146
:10100C0001202D21FFF768FE10E07B69013B07F101
:10101C001802134413F8103CDBB2DBB23033DBB2F2
:10102C00DBB25BB201201946FFF756FE7B69013B30
:10103C007B617B69002BDAD11837BD4680BD00BFC0
:10104C006766666680B483B000AF0023FB710DE069
:10105C00FB790A4A002142F83310FB79074ADB007E
:10106C00134400225A60FB790133FB71FB79032B8B
:10107C00EED90C37BD465DF8047B70477C0300202D
:10108C0080B582B000AF03463960FB71FB79DB00A1
:10109C00064A134418463968FFF73CFB38680121AF
:1010AC00FFF762FB0837BD4680BD00BF7C03002004
:1010BC0080B582B000AF4F4B00221A700023FB7139
:1010CC0021E0FB794C4A52F83330002B18D0FB79D5
:1010DC00DB00494A13441846FFF72EFB0346012B4D
:1010EC000ED0444B1B78DBB2D9B2FB79012202FA49
:1010FC0003F3DBB20A461343DBB2DAB23D4B1A7090
:10110C00FB790133FB71FB79072BDAD9394B1B784F
:10111C00DBB2002B3DD0374B1B685B0A03F001039D
:10112C00DBB2002B63D0334B1B681B0A03F00103AB
:10113C00DBB2002B5BD12F4B1B681B0B03F00F0397
:10114C00DBB2002B0FD02B4B1B681B0B03F00F03D8
:10115C00DBB20F3303F00F03D9B2264A138861F3C5
:10116C000F33138043E0234A13886FF34923138012
:10117C00204A138843F4807313801E4B1B889AB249
:10118C001E4B1A801B4A1388022161F30F33138004
:10119C002DE0184B1B681B0B03F00F03DBB2002B6D
:1011AC0017D0144B1B685B0A03F00103DBB2002B56
:1011BC000FD1104B1B681B0B03F00F03DBB20F336B
:1011CC0003F00F03D9B20B4A138861F30F3313806A
:1011DC000DE0084A138843F400731380074B002278
:1011EC001A80044A1388022161F30F3313800837E5
:1011FC00BD4680BDE80200207C030020E4020020F4
:10120C0080B483B000AF03460A46FB711346BB7132
:10121C00BB79002B1FD1264B1B78DBB2FA799A4293
:10122C0017D1234B1B78DAB2FB791340DBB219468A
:10123C001F4B1B78DBB2DAB2CBB25340DBB2DAB263
:10124C001B4B1A701A4A13886FF30823138001235F
:10125C0028E0002326E0164B1B78DBB2FA799A4281
:10126C001FD1134B1B681B0A03F00103DBB2002BCD
:10127C0017D00F4B1B78DAB2FB791340DBB219464F
:10128C000B4B1B78DBB2DAB2CBB25340DBB2DAB227
:10129C00074B1A70064A13886FF308231380012337
:1012AC0000E0002318460C37BD465DF8047B704700
:1012BC00E802002070B4840746D0541E002A41D0A6
:1012CC00CDB2034602E0621EE4B3144603F8015BA0
:1012DC009A07F8D1032C2ED9CDB245EA05250F2C4F
:1012EC0045EA054519D903F110022646103E0F2E8A
:1012FC0042F8105C42F80C5C42F8085C42F8045C62
:10130C0002F11002F2D8A4F1100222F00F0204F044
:10131C000F041032032C13440DD91E462246043AF6
:10132C00032A46F8045BFAD8221F22F00302043287
:10133C00134404F003042CB1C9B21C4403F8011B80
:10134C00A342FBD170BC704714460346C2E700BFF2
:10135C000C5445434C412055502020202020202067
:10136C00200000000C5445434C4120444F574E2064
:10137C0020202020200000000C5445434C412044E8
:10138C004F574E2055502020200000004D6F6475A3
:10139C006C6F204A41474120202020200000000093
:0413AC00280C010602
:1013B000FC5300400054004000000000000000000A
:1013C000FC530040005400400000000001000000F9
:1013D000FC530040005400400000000002000000E8
:1013E000FC530040005400400000000003000000D7
:1013F000FC530040005400400000000004000000C6
:10140000FC530040005400400000000005000000B4
:10141000FC530240005402400000000000000000A5
:10142000FC53024000540240000000000100000094
:10143000FC53024000540240000000000200000083
:10144000FC53024000540240000000000400000071
:040000030000026C8B
:00000001FF
